:020000040800F2
:10000000504C012041030008596600084D5C00086F
:1000100055660008A11F00086F8C00080000000052
:10002000000000000000000000000000890200083D
:100030002F47000800000000DD020008F1830008DF
:100040005B0300085B0300085B0300085B03000818
:100050005B0300085B0300085B0300085B03000808
:100060005B0300085B0300085B0300085B030008F8
:100070005B0300085B0300085B0300085B030008E8
:100080005B0300085B0300085B0300081D240008F5
:10009000CD2000085B0300085B0300085D4B0008EF
:1000A0005B0300085B0300085B0300085B030008B8
:1000B0005B0300085B0300085B0300085B030008A8
:1000C0005B0300085B0300085B0300085B03000898
:1000D0005B0300082D8800085B030008B588000852
:1000E0005B0300085B0300085B0300085B03000878
:1000F0005B0300085B0300085B0300085B03000868
:100100005B0300085B0300085B0300085B03000857
:100110005B0300085B030008698400085B030008B8
:100120005B0300085B0300085B0300085B03000837
:100130005B0300085B0300085B03000891270008CD
:10014000D12600085B0300085B0300085B0300087E
:100150005B030008B1410008E14100083D89000847
:100160005B0300085B0300085B0300085B030008F7
:100170005B0300085B0300085B0300085B030008E7
:100180005B0300085B03000800F002F800F06CF865
:100190000AA090E8000C82448344AAF10107DA45E2
:1001A00001D100F061F8AFF2090EBAE80F0013F0C8
:1001B000010F18BFFB1A43F001031847FCF10000C0
:1001C0001CF200000A444FF0000C10F8013B13F041
:1001D000070408BF10F8014B1D1108BF10F8015BA0
:1001E000641E05D010F8016B641E01F8016BF9D193
:1001F00013F0080F1EBF10F8014BAD1C0C1B09D1EA
:100200006D1E58BF01F801CBFAD505E014F8016B5B
:1002100001F8016B6D1EF9D59142D6D370470000ED
:100220000023002400250026103A28BF78C1FBD8FF
:10023000520728BF30C148BF0B60704766290EF0D7
:100240004281642900F0B280002070471FB50EF093
:1002500030F900F0CBFC0400002000210DF090FAF2
:10026000E0601FBD10B510BD00F0C4FD1146FFF7E2
:10027000EDFF0AF015FF00F0E2FD03B4FFF7F2FF17
:1002800003BC0AF05EFB00002A4B19680868B0E85E
:10029000F04F80F30988BFF36F8F4FF0000080F3B9
:1002A000118870470000000006480068006880F36D
:1002B000088862B661B6BFF34F8FBFF36F8F00DF60
:1002C00000BF00BF08ED00E0DFF80C00016841F45A
:1002D00070010160704700BF88ED00E0EFF3098016
:1002E000BFF36F8F134B1A681EF0100F08BF20ED7D
:1002F000108A20E9F04F106008B44FF0500080F3EE
:100300001188BFF34F8FBFF36F8F0CF04BFA4FF094
:10031000000080F3118808BC19680868B0E8F04F45
:100320001EF0100F08BFB0EC108A80F30988BFF3ED
:100330006F8F704728010020EFF3058070470000A1
:100340000948804709480047FEE7FEE7FEE7FEE769
:10035000FEE7FEE7FEE7FEE7FEE7FEE704480549A5
:10036000054A064B70470000018400088901000817
:1003700050460120504C0120504801205048012097
:10038000704700000FB41CB5074B06AA7B446946B2
:100390000090059800F0DFFB0020694600F0EEFBBE
:1003A0001CBC5DF814FB0000ED0700002DE9F041D6
:1003B0000646002410687529314616A510D0AFF303
:1003C0000080002802DA404213A507E031688A075E
:1003D00001D512A502E0490704D511A5012401E0C9
:1003E000AFF3008000210A2206F1240709E0B0FBE8
:1003F000F2FCB0FBF2F302FB1C00303078541846DC
:10040000491C0028F3D123462A463046BDE8F04176
:1004100000F034B9000000002D0000002B000000A7
:10042000200000002DE9F0474FF0000A89460446FD
:10043000C0F820A02046E1688847002876D025280B
:1004400006D0D4E901219047206A401C2062F1E7E0
:10045000E168204600258847C4F81CA0064600270E
:10046000C4F818A02A2E09D030460AF063FA38B32F
:1004700004EB8708303EC8F8186019E059F8041BEF
:10048000204604EB87029161E1688847012F064608
:1004900018D1E069002820DA25F020051DE0D8F801
:1004A000180000EB800006EB40003038C8F8180058
:1004B0002046E168884706460AF03CFA0028EED15B
:1004C000012F0AD02E2E08D12046E16888477F1CD4
:1004D0000646022F45F02005C4DBA069002803DA98
:1004E000404245F00105A061E80701D025F0100564
:1004F000B6B1A6F14100192802D8203645F40065AE
:100500004A463146204625604D46FFF797FE58B1D2
:10051000012806D0ED1D25F0070000F1080989E744
:1005200004E005F1040985E730468AE7206ABDE862
:10053000F087032A40F2308010F0030C00F01580A1
:1005400011F8013BBCF1020F624498BF11F801CBD6
:1005500000F8013B38BF11F8013BA2F1040298BF3B
:1005600000F801CB38BF00F8013B11F0030300F0A5
:100570000A83083AC0F0088051F8043B083A51F861
:1005800004CBA0E80810F5E7121D5CBF51F8043B4E
:1005900040F8043BAFF30080D20724BF11F8013BC1
:1005A00011F801CB48BF11F8012B24BF00F8013B23
:1005B00000F801CB48BF00F8012B704702F0FF03A1
:1005C00043EA032242EA024200F002B84FF000027E
:1005D0000429C0F0128010F0030C00F01B80CCF155
:1005E000040CBCF1020F18BF00F8012BA8BF20F8C3
:1005F000022BA1EB0C0100F00DB85FEAC17C24BF17
:1006000000F8012B00F8012B48BF00F8012B7047C0
:100610004FF0000200B5134694469646203922BF9B
:10062000A0E80C50A0E80C50B1F12001BFF4F7AFE6
:10063000090728BFA0E80C5048BF0CC05DF804EBC8
:10064000890028BF40F8042B08BF704748BF20F836
:10065000022B11F0804F18BF00F8012B7047704734
:1006600070477047704710B500F0C4FA006810BDBD
:1006700010B5044600F0BEFA046010BD2DE9F04745
:100680000D4699469246044600F124080168880602
:1006900004D5E06921F01001216000E00120A842AA
:1006A00001DD471B00E00027A1697A1902EB090070
:1006B000081AA0612078C00602D42046AFF300805B
:1006C000002608E0D4E901211AF806009047206AC4
:1006D000401C761C20624E45F4DB2078C0060AD50B
:1006E0002046AFF3008006E0D4E901213020904796
:1006F000206A401C2062381EA7F10107F4DC07E0E5
:10070000D4E9012118F805009047206A401C2062B6
:10071000281EA5F10105F3DC2046AFF30080207808
:10072000000602D50220BDE8F0870120FBE77047F4
:100730002DE9FF4F0C461E464FF0FF378BB0D2E934
:100740000001DDF860800A908A46C1F30A5505B9B8
:100750003D46002108464FF00000BAF1000F00F4BA
:10076000400005DA00EB80004FF4400101EA500040
:100770004FEA9059B9F1010F00DDB9460A9850EAE5
:100780004A000ED044F61050A5F2FF3545432F1411
:10079000B8F1000F1ED07542291E1EDDC9F10002FE
:1007A0001CE0B8F1010F4FF0000001D0302103E050
:1007B000F24305E02154401CB042FBDB30460022EE
:1007C000002121540B99C1F80880C1E900200FB025
:1007D000BDE8F08FBD1B6D1CDEE74A4600DA6942BA
:1007E00006A800F091FA06AB93E8070003AB83E894
:1007F000070050460A9900F0FFFB8DE80700A0F5BE
:1008000000501F3800900398002D0ADD42F21F01AE
:100810004A460844002303A90390684600F068FE96
:1008200009E0A0F500504A461F38002303A90390B1
:10083000684600F072FE8DE807000004000C03D04B
:100840004FF0FF30410800E01046B8F1000F03D030
:100850000022009215461EE0751E05D400F0CEF968
:10086000303262556D1EF9D5B3460122084302D0DD
:1008700000227F1C04E02078302801D100227F1E56
:10088000002A099784D01DE0112D07DA00F0B6F98F
:10089000303262556D1C50EA0102F5D1084302D096
:1008A0000098C8B10EE00021681E05E0235C625C80
:1008B00063542254401E491C8142F7DBAB46A81BFF
:1008C000401E0990002004F80B000B98099AC0F80C
:1008D0000880C0E9002B7AE711264FF0000857E79F
:1008E0002DE9F04F88460446D21D22F0070191B051
:1008F000D1E90001CDE90A0108F0F4F902460B98AC
:10090000C00F01D02D2007E02068810701D52B20E2
:1009100002E0202101EAC000032A099001D0072A41
:1009200005DB03464146204600F0AEF90BE1207896
:10093000800601D5E06900E00620B8F1650F814628
:1009400006D0B8F1660F18D0B8F1670F70D131E05A
:100950000020B9F1110F009001DB112301E009F132
:1009600001030AAA01A90CA8FFF7E2FEDDE90C7059
:10097000002609F10105834647E001204B4600901F
:100980004FF000470AAA01A90CA8FFF7D1FEDDE944
:100990000DB00C995D46002610B909F101000D1843
:1009A000B9EB050003D4C0F1FF3609F10105A5EB51
:1009B00009002BE0B9F1010F01DA4FF00109002025
:1009C000B9F1110F0090484601DD112300E0034604
:1009D0000AAA01A90CA8FFF7ABFEDDE90C704D4691
:1009E00000268346207800070AD4AB4500DA5D462E
:1009F00001A8012D04DD411911F8011C302907D08F
:100A00004F4502DA17F1040F04DA012082460FE0A5
:100A10006D1EEEE7002F02DCED1B3E4403E0781C68
:100A2000A84200DD7D1CB81B00F1010A4FF0004711
:100A30002078000703D4AA4501DB4FF0FF3A0021DC
:100A4000B7F1004F0DF143088DF8431024D0022078
:100A50002B23002F01DA7F422D230A21021EA0F151
:100A6000010000DC5FB197FBF1FC97FBF1F201FBA9
:100A70001C7C17460CF1300C08F801CDEEE7A8F10C
:100A8000010003702188090501D5452100E0652199
:100A9000A0F1010800F8011C09980FA9A1EB0807B3
:100AA000FF1D00B10120411901EBEA70A169384432
:100AB000081A401EA0612078C00602D42046AFF379
:100AC0000080099828B1D4E901219047206A401C90
:100AD00020622078C00622D52046AFF300801EE0B9
:100AE000002E04DBB34502DD01A8805D00E030206C
:100AF000D4E901219047206A401C2062761CAAF1AB
:100B000001005FEA000A0AD100F070F8C0680168CD
:100B1000405CD4E901219047206A401C2062281ED5
:100B2000A5F10105DCDC07E0D4E9012118F8010B8F
:100B30009047206A401C2062381EA7F10107F3DCB1
:100B40002046AFF30080032011B041E601694A1C42
:100B500002610878704700B58FB0CDE901310021FE
:100B6000059105497944CDE9031011466846FFF720
:100B700059FC0FB000BD0000E5FFFFFF0A6802F856
:100B8000010B0A60704710B5203AC0F00B80B1E845
:100B90001850203AA0E81850B1E81850A0E81850B2
:100BA000BFF4F5AF5FEA027C24BFB1E81850A0E8BB
:100BB000185044BF18C918C0BDE810405FEA827CD5
:100BC00024BF51F8043B40F8043B08BF7047D207EC
:100BD00028BF31F8023B48BF11F8012B28BF20F88D
:100BE000023B48BF00F8012B7047000000487047E7
:100BF0001046012000487047F045012030B5B0F1A3
:100C00000A024FEA900E71F100034EEA817EB0EBCA
:100C10000E0061EB91014FEA101E4EEA017E10EBCF
:100C20000E0041EB11114FEA102E4EEA016E10EB4F
:100C30000E0041EB11214FEA104E4EEA014E10EB2F
:100C40000E0041EB1141401841F100014FEAD00084
:100C500040EA41704FEAD10110EB80054FEA810470
:100C600044EA907444EB01046D1944EB0404521BF4
:100C7000A3414FF0000348BF0A3200D530BD401CED
:100C800041F1000130BD00002DE9F0411F4604464E
:100C900003260168072A01F4006004DB08B116A5E9
:100CA00005E016A503E008B115A500E015A521F0A3
:100CB00010002060A069C01EA0610FB1401EA0619D
:100CC0002046AFF300804FB1D4E901213846904768
:100CD000206A401C2062C01C206206E0206AFAE7FD
:100CE000D4E9012115F8010B9047761EF8D2204671
:100CF000AFF30080BDE8F0814E414E006E616E00A2
:100D0000494E4600696E66002DE9F0478146164659
:100D10008AB0354878440DC88DE80D0032487844D3
:100D2000801C03AC0DC884E80D0041F69B300844DC
:100D3000372190FBF1F290FBF1F5A5F1800501FB65
:100D400012041B3C02D56442012000E00020DFF8C1
:100D500098A080460027FA44AAF1BE0A0EE0E007F8
:100D60000AD03246684607EB470101230AEB8101AE
:100D700000F0D3FB8DE8070064107F1C002CEED13F
:100D8000194F7F44AE3F19E0E80715D007EB041078
:100D90000DF1180A90E80E008AE80E00C068F042D3
:100DA00001D1981908903246012306A903A800F042
:100DB000B4FB03AB83E807006D10641C002DE3D186
:100DC0004FF0010332466946B8F1000F03A802D084
:100DD00000F08EFB01E000F0A0FBC9E90001C9F8BA
:100DE00008200AB0BDE8F08784DE000000487047A4
:100DF000F04501207546FFF7F9FFAE46050069464C
:100E0000534620F00700854618B020B5FFF7A6FA34
:100E1000BDE820404FF000064FF000074FF00008FB
:100E20004FF0000B21F00701AC46ACE8C009ACE87C
:100E3000C009ACE8C009ACE8C0098D46704710B5E0
:100E40000446AFF300802046BDE81040FFF715BA16
:100E50004FF0013C50F8042B51F8043B9A4221D149
:100E6000A2EB0C03934313EACC1317D150F8042BD5
:100E700051F8043B9A4215D1A2EB0C03934313EAB9
:100E8000CC130BD150F8042B51F8043B9A4209D1F2
:100E9000A2EB0C03934313EACC13DBD04FF000001A
:100EA000704700BFD01A01BAB1FA81F101F0180100
:100EB00022FA01F0CB40C1F12001DBB2C0B2C01A6E
:100EC0002CFA01F3D11A914311EAC311E6D170470C
:100ED0009FED221A9FED222A20EE010AB5EE001A9C
:100EE00030EE010ABDEEC01A11EE100AB5EE400A4E
:100EF000F1EE10FAB8BF013801EE100AB8EEC11ACF
:100F000030EE410A20EE020ABDEEC01A9FED152A0E
:100F100011EE100A002130EE021AB1EB502F4EF6FE
:100F2000B4311CBF0020B0EE410AC0F6000101EE52
:100F3000100A01EB8001B8EE411A30EE410A91ED42
:100F4000001A91ED012AB7EE003A33EE403A23EE53
:100F5000011A20EE020A31EE000A704783F9223EA0
:100F600000000044000000C49FED201A9FED202ADD
:100F700020EE010ABDEEC01A11EE100AB5EE400ACD
:100F8000F1EE10FAB8BF013801EE100AB8EEC11A3E
:100F900030EE410A20EE020ABDEEC01A9FED152A7E
:100FA00011EE100A002130EE021AB1EB502F4EF66E
:100FB000B4311CBF0020B0EE410AC0F6000101EEC2
:100FC000100A01EB8001B8EE411A30EE410A91EDB2
:100FD000001A91ED012AB7EE003A33EE403A23EEC3
:100FE000011A20EE020A31EE000A704783F9223E10
:100FF00000000044000000C45FEA400C08BF91F00C
:10100000000F4FEA8C234FEAC12243EA51514FEAC5
:101010001C5018BF00F5F0404FEA300018BF41F0F7
:1010200000415FEA6C5C00F02980BCF1FF3F08BF23
:1010300040F080407047130C06BF12044FF0100CB4
:101040004FF0000C130E04BF12020CF1080C130F2A
:1010500004BF12010CF1040C930F04BF92000CF1B9
:10106000020CD30F04BF52000CF1010C11464FF0DB
:101070000002A0F11F00A0EB0C00704711F0004F20
:1010800008BF704731F000413FF4D5AF0B0C06BFED
:1010900009044FF0100C4FF0000C0B0E04BF0902B6
:1010A0000CF1080C0B0F04BF09010CF1040C8B0FA1
:1010B00004BF89000CF1020CCB0F04BF49000CF1F6
:1010C000010CCCF12003A0EB0C0022FA03F302FA8E
:1010D0000CF241EA030100F10100704720F07F4C5F
:1010E00080EA030023F07F47ACEB070303F57C5352
:1010F00000F0004003F1FF032DE980494FEA154B52
:1011000009B44FEA144325EA0B4E24EA03480FF2D0
:10111000042606EB132749083E785FEA320203FBF8
:101120000667C7F5000707FB06F64FEA54374FEA94
:10113000D64606F1020607FB066CCCF1005C4FEACE
:101140001C472CEA074C07FB06F40CFB06F504EBE6
:1011500015464FEA961634BF00204FF000404FEA84
:10116000D13706FB07FC4FEA1C4C0CFB0BF7D21BDC
:1011700003FB0CF761EB07010CFB0EF7B0EB07402C
:1011800072EB17420CFB08F734BFA2EB0742B2EB3D
:10119000074261EB17414FEA0C444FEA910706FB07
:1011A00007FC4FEA1C4C0CFB0BF7B0EBC74072EB93
:1011B000573203FB0CF734BFA2EBC742B2EBC74276
:1011C00061EB57310CFB0EF7B0EBC70072EB5772B7
:1011D0000CFB08F734BFA2EBC702B2EBC70261EB0E
:1011E0005771039F4FEA816141EA921104EBCC04ED
:1011F0004FEAD1374FEA826206FB07FC42EA9012BF
:101200004FEA80604FEA1C4C0CFB0BF7D21B03FB30
:101210000CF761EB07010CFB0EF7B0EB074072EB2C
:1012200017420CFB08F734BFA2EB0742B2EB0742B0
:1012300061EB17414FEA8C554FEA910704EB9C2470
:1012400006FB07FC4FEA1C4C0CFB0BF7B0EBC7404E
:1012500072EB573203FB0CF734BFA2EBC742B2EB81
:10126000C74261EB57310CFB0EF7B0EBC70072EBD6
:1012700057720CFB08F734BFA2EBC702B2EBC702F0
:1012800061EB577115EB4C254FEA816141EA9211F0
:101290004FEA82624FEAD13742EA901206FB07FC1E
:1012A00044F100044FEA80604FEA1C4C0CFB0BF742
:1012B000D21B03FB0CF761EB07010CFB0EF7B0EB45
:1012C000074072EB17420CFB08F734BFA2EB074252
:1012D000B2EB074261EB174115EB1C154FEA813168
:1012E00041EA92414FEA823242EA90424FEA80302C
:1012F0004FEA0C7644F1000448EA03434EEA0B48F7
:101300004FF0000EB2EB080C71EB030724BF6246EE
:1013100039464EEB0E0E4FF0000B0018524149417A
:101320004BEB0B0BB2EB080C71EB03077BF1000BE3
:1013300024BF624639464EEB0E0E4FF0000B0018EC
:10134000524149414BEB0B0BB2EB080C71EB03071D
:101350007BF1000B24BF624639464EEB0E0E51EA7C
:10136000020718BF46F0010616EB0E7655F1000293
:1013700054F1000103D5BDE88901BDE80088BDE84E
:101380008901BDE80048B619524141EB0101A3F1C2
:101390000103704780807F7E7D7C7B7A79787776C9
:1013A00076757473727171706F6E6E6D6C6C6B6A42
:1013B0006A696868676666656464636362616160E0
:1013C000605F5F5E5E5D5D5C5C5B5B5A5A5959585D
:1013D00058575756565555555454535352525251C7
:1013E000515050504F4F4F4E4E4D4D4D4C4C4C4B1D
:1013F0004B4B4A4A4A494949484848474747474664
:10140000464645454544444444434343434242429F
:1014100042414141002B9C4630D477002BD01CB573
:101420004FEA370703B44FF010004FF01001BAF144
:10143000000F06D0BCF1000FDCBF40F0080040F008
:1014400008014FF000000FBCBDE810400BF1010B8C
:10145000BBF1010F08BF5FEA170722BF12F10102BB
:1014600011F101014FF0004143F1000300F0004091
:1014700043EA00007047F9D35708D0E746EA06462A
:1014800013F1400F4FEA16461FDD13F1200FDFBFA7
:1014900016430A46002120335B42BED0C3F1200729
:1014A00046EA064602FA07F74FEA164646EA0706F4
:1014B000C3F1200722FA03F201FA07F721FA03F138
:1014C0004FF0000342EA0702A7E746EA020646EAAF
:1014D00006464FEA164646EA0106BCBF46EA0646FD
:1014E000360C4FF000034FF000024FF0000194E77C
:1014F0002DE9804C9A46934670B491E8380007C8AD
:1015000031EA400C48BF34EA430C03D5FFF7E6FD4F
:10151000FFF780FFF0BCBDE8008C2DE9804C9A46B7
:10152000934670B491E8380007C810F0804F08BFA8
:1015300013F0804F03D100F005F8FFF76BFFF0BC0C
:10154000BDE8008C20F07F4780EA030023F07F4C49
:1015500007EB0C03A3F57C5300F00040A3F1FE035E
:1015600092F0000F00F0B38095F0000F00F077804C
:101570002DE901494FEA11404FEA144621EA00489B
:1015800000FB06FC24EA064708FB06F607FB08F802
:1015900000FB07F718EB06484CEB164C4FEA124BD2
:1015A00018EB07484FEA15464CEB174022EA0B4E62
:1015B0000BFB06FC25EA06470EFB06F607FB0EFEB4
:1015C0000BFB07F71EEB064E4CEB164C4FF00006DC
:1015D0001EEB074E4CEB174B18EB0B0840F10000CD
:1015E00018EB0E0B58EB000840F100008F1A4FF07B
:1015F00000013CBFC943661B14BFB5EB040C0021BE
:101600003CBFC943F61B4FEA17444EEA8E0E27EA49
:1016100004454FEA1C4704FB07622CEA074C05FB14
:1016200007F70CFB05F604FB0CFC16EB074642EB38
:10163000174216EB0C4642EB1C421BEB060658EB1E
:101640000202414146EA9E0601D5BDE80189B6196C
:10165000524141EB0101A3F10103BDE801894FEAC9
:1016600014454FEA114724EA054621EA074C05FBD9
:1016700007F406FB07F70CFB06F105FB0CFC11EB6E
:10168000074144EB17444FEA124711EB0C4144EB7E
:101690001C4422EA074C05FB07F206FB07F70CFB8C
:1016A00006F605FB0CFC16EB074642EB174216EB61
:1016B0000C4642EB1C456A1854F1000148BF7047C4
:1016C000B619524141EB0101A3F10103704795F0B6
:1016D000000F37D04FEA11424FEA144721EA024681
:1016E00024EA074C02FB07F106FB07F70CFB06F4A4
:1016F00002FB0CFC14EB074441EB17414FEA154782
:1017000014EB0C4441EB1C4125EA074C02FB07F5A6
:1017100006FB07F70CFB06F602FB0CFC16EB074674
:1017200045EB174516EB0C4645EB1C42121951F1DF
:10173000000148BF7047B619524141EB0101A3F1C6
:10174000010370474FEA14454FEA114724EA054662
:1017500021EA074C05FB07F106FB07F70CFB06F235
:101760004FF0000605FB0CFC12EB074241EB174162
:1017700012EB0C4251EB1C4148BF7047921841EBF1
:101780000101A3F10103704701460548B0F90800C3
:10179000884202DD01F5005070470846FCE7000072
:1017A0004403002002468A4202DA02F500507047E4
:1017B0001046FCE710B53649B1F90210354AB2F9C6
:1017C0000020881A002801DB014600E04142B1F503
:1017D0007A6F58DD3048B0F900102D4803F0DAF97F
:1017E0002B49B1F90810884226D12B48008800F512
:1017F000805001B2264803F0D9F92548B0F90C0011
:101800002349B1F90810884207DA2148808900F598
:10181000005000B21E49488003E01D4880891C49E1
:1018200048801D48B0F9000000F58050FFF7ACFF7C
:1018300000B21A49088021E01748B0F90010144896
:1018400003F0B4F91248B0F90C001149B1F90810CD
:10185000884207DA0E48808900F5005000B20C4932
:10186000488003E00A488089094948800A48B0F95D
:101870000000FFF789FF00B20849088008480068A7
:10188000404207490860024840880249088010BD6C
:10189000440300207C000020800000207E00002007
:1018A000B801002070B505460C4600260DB1022C8B
:1018B00000D870BDA11E06480288284603F0D8FA59
:1018C0000646A01E2E54310A601E295400BFF0E7C0
:1018D0006800002070B505460C4600260DB1022CAC
:1018E00000DC70BD601E81B2FF22284603F0DAFAE8
:1018F0000646601E2E5400BFF3E7000010B510210D
:10190000014803F0AFFA10BD0000024010B51021ED
:10191000014803F0A5FA10BD0000024010B50121F6
:10192000014803F09FFA10BD0004024010B50121E8
:10193000014803F095FA10BD000402401CB50020D8
:1019400000900190FFF7E2FF922000F04BFA062290
:101950006946122000F027FAFFF7D0FF9DF801003A
:10196000000200B29DF8001040EA01045D480480C6
:101970009DF80300000200B29DF8021040EA010445
:10198000584844809DF80500000200B29DF80410FC
:1019900040EA010453488480FFF7C8FF08226946E3
:1019A000002000F000FAFFF7B9FF9DF800000F28B3
:1019B00029D19DF80300000200B29DF8021040EA10
:1019C00001044848408B201A00B24649C8819DF85E
:1019D0000500000200B29DF8041040EA01044148ED
:1019E000808B201A00B23F4908829DF80700000250
:1019F00000B29DF8061040EA01043A48C08B201A54
:101A000000B238494882FFF781FFA22000F0EAF9CE
:101A100002226946222000F0C6F9FFF76FFF9DF809
:101A20000000C0009DF8011040EA6114B4F5806F19
:101A300002DBA4F5006004B22A4884810146B1F9B2
:101A40001200002801DB014600E04142142902DABD
:101A5000002024494882244822490A6802604A68D2
:101A60004260896881601F48B0F90C0000EE100ADE
:101A7000F8EEC00AB4EE001AB3EE070A00EE810ACF
:101A8000194880ED030A1748B0F90E0000EE100A5D
:101A9000B8EEC00A1548D0ED000A20EE200A124820
:101AA00080ED040A0F48B0F9100000EE100AB8EEFD
:101AB000C00A0E48D0ED000A20EE200A0A4880ED48
:101AC000050A0848B0F9120000EE100AB8EEC00A84
:101AD0000648D0ED000A20EE200A034880ED060AF1
:101AE0001CBD0000A2070020C40700201800002031
:101AF0001CB5002000900190002460E0FFF706FF75
:101B0000922000F06FF906226946122000F04BF98E
:101B1000FFF7F4FE9DF801009DF8001041EA002057
:101B20004749898A084400B2454988829DF80300E4
:101B30009DF8021041EA00204149C98A084400B2D8
:101B40003F49C8829DF805009DF8041041EA002035
:101B50003B49098B084400B239490883FFF7E6FE88
:101B600008226946002000F01EF9FFF7D7FE9DF815
:101B700003009DF8021041EA00203149498B0844D6
:101B800000B22F4948839DF805009DF8041041EAF2
:101B900000202B49898B084400B2294988839DF88D
:101BA00007009DF8061041EA00202549C98B08442A
:101BB00000B22349C883052009F086F9641CB4F5F6
:101BC000967F9BDB1E48B0F914004FF4967190FB92
:101BD000F1F000B21A4988820846B0F916004FF4B5
:101BE000967190FBF1F000B21549C8820846B0F931
:101BF00018004FF4967190FBF1F000B21049088381
:101C00000846B0F91A004FF4967190FBF1F000B25B
:101C10000B4948830846B0F91C004FF4967190FBBD
:101C2000F1F000B2064988830846B0F91E004FF46F
:101C3000967190FBF1F000B20149C8831CBD000011
:101C4000A207002000B587B00121084605F0D0F8B2
:101C50000121022005F0CCF80121080305F0F8F875
:101C60008020059002208DF8180000208DF81A00C1
:101C70008DF81B0003208DF8190005A93E4803F0DC
:101C800084F81820059002208DF8180000208DF8A7
:101C90001A008DF81B0003208DF8190005A937489C
:101CA00003F073F81020059001208DF81800002033
:101CB0008DF81A0001208DF81B0003208DF8190003
:101CC00005A92D4803F061F810212B4803F0CAF84C
:101CD000012005908DF8180000208DF81A000120D1
:101CE0008DF81B0003208DF8190005A9234803F087
:101CF0004CF80121214803F0B5F8052207211E48C0
:101D000003F08BF8052203211C4803F086F8052216
:101D100004211A4803F081F80121080305F0A8F80E
:101D200000214FF4805005F0A3F80020ADF800002A
:101D30004FF48270ADF802003820ADF80C0000209E
:101D4000ADF804004FF40070ADF80A000220ADF8C1
:101D500006000120ADF808000020ADF80E000A20B2
:101D6000ADF810006946064805F0D2FA0121044892
:101D700005F0B4FA07B000BD0000024000040240C4
:101D80000030014010B50024FFF75CFF08F0FEFDB5
:101D9000044308F08FFE04430A2009F04FF8FFF7D0
:101DA000A7FE204610BD70B506460C46154646F007
:101DB000800000F017F806E0552000F013F82070BE
:101DC000641C681EC5B2002DF6D170BD70B5044606
:101DD0000D4644F0800000F005F8552000F002F8B0
:101DE000287070BD10B5044600BF02210A4805F0F6
:101DF00081FA0028F9D02146074805F087FA00BF8C
:101E00000121054805F076FA0028F9D0024805F0CE
:101E10007AFAC0B210BD00000030014070B505462E
:101E20000C462846FFF7DEFF2046FFF7DBFF70BDBC
:101E300010B504F0C9FB04F0EFFB02F0C9FB00F0A1
:101E4000B1F8FFF79FFF4FF47A7006F095FB00F0B2
:101E500017F802F04DF904F037FC05F0D7F803F05D
:101E6000D9FD01F07DF905F097FB05F0C1F910BD32
:101E7000024A1060014A1032116070472C0800407D
:101E800000B58BB00121042004F0C2FF012108201D
:101E900004F0AEFF02220E211F4802F0BEFF4FF4F5
:101EA0008040099002208DF8280000208DF82A003B
:101EB00003208DF8290009A9174802F066FF532076
:101EC000ADF818000020ADF81A0040F25720079036
:101ED0000020ADF8200006A9104806F061FC0020A3
:101EE00003906020ADF804000120ADF8060000204A
:101EF000ADF8100001A9094806F0F8FB08210748D1
:101F000006F044FC0121054806F064FB012103486A
:101F100006F06FFB0BB000BD000C02400008004053
:101F20001A48B0F9040042F21071884204DD1848E2
:101F30000068401C164908601648006801281DDB2F
:101F400014480068401C13490860084600681428BB
:101F500004DD002008600E49086016E00B48B0F967
:101F6000040010F57A6F03DD0B480C4908600CE0A3
:101F70000020084908600649086006E00448006837
:101F80000A2802D101200349086070477403002029
:101F9000D0020020D402002060F0FFFFC802002021
:101FA00000BFFEE710B500F003F800F0FDFA10BD29
:101FB00000B58BB00121082004F01AFF012148066A
:101FC00004F026FF092200213E4802F026FF0922E4
:101FD00001213C4802F021FF0320099002208DF8E6
:101FE000280003208DF8290000208DF82A0009A977
:101FF000344802F0CAFE14208DF8200002208DF82B
:10200000210000208DF8220001208DF8230008A86F
:1020100004F030FD13208DF8200002208DF82100FF
:1020200000208DF8220001208DF8230008A804F07C
:1020300021FD254800F0DCFC05A800F014FF03207A
:10204000ADF8140000208DF816008DF81700082058
:102050008DF8180003208DF8190000208DF81A0063
:102060008DF81B008DF81C008DF81D008DF81E00EA
:1020700001208DF81F0005A9134800F0F2FD002093
:10208000ADF80400ADF80600ADF80800ADF80A00A0
:10209000ADF80C008DF80E008DF80F0001208DF8C2
:1020A00010008DF8110001A800F0BEFC01220221F1
:1020B000054800F0CDFD01221146034800F0C8FD9F
:1020C0000BB000BD000C02400064004000B585B0BC
:1020D00002215C4800F02CFD00287AD06A460021DD
:1020E000584800F048FE9DF80800002872D19DF87D
:1020F00009000028FAD19DF80A000828F6D13220FC
:102100005149086040F205220098811A904220D07F
:1021100009DCA0F2012068B101280CD002280BD004
:1021200003287CD109E0042918D00C291CD0FB29F4
:102130007FD165E000BF00BF00BF0099A1F201217F
:1021400001EB4101414A02EBC100694600F028FC65
:1021500070E069463E4800F023FC6BE069463C486D
:10216000183000F01DFC65E00DF10B00018800EE59
:10217000101AB8EE400ADFED370A80EE201A364911
:1021800081ED001A418800EE101AB8EE400ADFED2A
:10219000310A80EE201A304981ED011A818800EE63
:1021A000101AB8EE400ADFED2B0A80EE201A2A49F9
:1021B00081ED021AC18800EE101AB8EE400ADFED78
:1021C000250A80EE201A244981ED031A91ED010AB7
:1021D00001E034E02FE0DFED210A20EE200AD1ED0E
:1021E000040A9FED1F1A01EE200A81ED040A40F255
:1021F0001121194A51614FF47A711A4A116019E09C
:102200000DF10B0008F0B2FB134880ED010A0DF14F
:102210000F0008F0ABFB104880ED020A00E008E078
:102220004FF440700C4948614FF47A700D490860D2
:1022300000E000BF00BF0221024800F05DFB05B0D6
:1022400000BD00000064004040000020E4020020C7
:10225000440300200000C8421C0400209A99993EC3
:102260003333333F4800002000B585B000208DF89F
:1022700008008DF8090008208DF80A008001009000
:102280001E48C089000A8DF80B001C48817B8DF820
:102290000C10C08C010A8DF80D10184890F826100B
:1022A0008DF80E10C08F010A8DF80F10134890F8AA
:1022B0003E108DF81010B0F85600010A8DF811107C
:1022C0000E4890F856108DF8121000200C49087036
:1022D0000C480068002803DD69460B4800F00CFE3E
:1022E00004E008480068002800DC03E004480078A7
:1022F0000028F6D000BF05B000BD0000E4020020B9
:1023000050000020400000200064004000B585B06F
:1023100000208DF808008DF8090008208DF80A00CB
:1023200040F2FF2000901748C08C000A8DF80B0087
:10233000144890F826108DF80C1000218DF80D101F
:102340008DF80E108DF80F108DF810108DF81110FB
:102350008DF8121000200C4908700C480068002805
:1023600003DD69460A4800F0C7FD04E0074800683D
:10237000002800DC03E0044800780028F6D000BF05
:1023800005B000BD440300205000002040000020A4
:102390000064004000B585B000208DF808008DF87D
:1023A000090008208DF80A0040F2FF10009017483D
:1023B000C089000A8DF80B001448817B8DF80C1041
:1023C00000218DF80D108DF80E108DF80F108DF87E
:1023D00010108DF811108DF8121000200C490870A3
:1023E0000C480068002803DD69460B4800F084FDB6
:1023F00004E008480068002800DC03E00448007896
:102400000028F6D000BF05B000BD00004403002046
:1024100050000020400000200064004010B5012161
:10242000054800F085FB30B1012004490870012106
:10243000014800F061FA10BD006400405000002027
:1024400000B585B05048406940F21121884224D13E
:1024500000208DF808008DF8090008208DF80A008A
:10246000481E00904948008B64214843000A8DF8BB
:102470000B004648007E4843C1B28DF80C10002185
:102480008DF80D108DF80E108DF80F108DF81010BE
:102490008DF811108DF812105EE03C48008B3C283E
:1024A00018D006DC2D2809D032280BD037281DD1B2
:1024B0000CE0502812D0642818D113E001203449D0
:1024C000086017E002203249086013E00320304919
:1024D00008600FE004202E4908600BE005202C491D
:1024E000086007E006202A49086003E00120284927
:1024F000086000BF00BF00208DF808008DF80900BB
:1025000008208DF80A0040F227400090214800780A
:102510008DF80B001E4801788DF80C101B48008BBD
:1025200000EE100AF8EE400A1B48406800EE100A60
:1025300030EEC00ABCEEC00A10EE100AC1B28DF82F
:102540000D1000218DF80E108DF80F108DF8101061
:102550008DF811108DF812100020104908701048E5
:102560000068002803DD69460E4800F0C5FC04E061
:102570000B480068002800DC03E0084800780028C9
:10258000F6D000BF05B000BD1C040020C817002015
:102590005800002054000020E317002050000020C5
:1025A000400000200064004000B58BB001210220F3
:1025B00004F01EFC0121480604F02AFC01218806D3
:1025C00004F026FC092205213F4802F026FC0922DE
:1025D00006213D4802F021FC6020099002208DF880
:1025E000280003208DF8290000208DF82A0009A971
:1025F000354802F0CAFB40208DF8200002208DF8FB
:10260000210000208DF8220001208DF8230008A869
:1026100004F030FA3F208DF8200002208DF82100D0
:1026200000208DF8220001208DF8230008A804F076
:1026300021FA264800F0DCF905A800F014FC03207C
:10264000ADF8140000208DF816008DF81700082052
:102650008DF8180003208DF8190000208DF81A005D
:102660008DF81B008DF81C008DF81D008DF81E00E4
:1026700001208DF81F0005A9144800F0F2FA00208F
:10268000ADF80400ADF80600ADF80800ADF80A009A
:10269000ADF80C000E208DF80E0000208DF80F0014
:1026A00001208DF810008DF8110001A800F0BCF990
:1026B00001220221054800F0CBFA0122114603480D
:1026C00000F0C6FA0BB000BD0004024000680040F4
:1026D00000B585B00221284800F02AFA002849D028
:1026E0006A460021244800F046FB9DF808000028B7
:1026F0003CD19DF80900B0BB9DF80A00082835D1EF
:1027000032201E4908600098A0F2022007282BD230
:10271000DFE800F0040C111718191A006946184870
:1027200000F03EF9164800F0AFFB1EE06946154880
:1027300000F036F919E069461248183000F030F917
:1027400013E000BF00BF00BF64200F49086000997C
:10275000A1F2052101EB41010C4A02EBC1006946DF
:1027600000F01EF901E001E000BF00BF02210248B5
:1027700000F0C2F805B000BD006800404400002031
:10278000740300208C0300204C000020BC030020B8
:1027900010B50121054800F0CBF930B10120044902
:1027A00008700121014800F0A7F810BD0068004042
:1027B0005100002000B585B000208DF808008DF88C
:1027C000090008208DF80A0040F2FF1000901E4812
:1027D000C089000A8DF80B001B48817B8DF80C1016
:1027E000C08C010A8DF80D10174890F826108DF84E
:1027F0000E10C08F010A8DF80F10134890F83E108C
:102800008DF81010B0F85600010A8DF811100E481E
:1028100090F856108DF8121000200C4908700C48E2
:102820000068002803DD69460A4800F065FB04E003
:1028300007480068002800DC03E00448007800280E
:10284000F6D000BF05B000BDBC0300205100002041
:10285000440000200068004000B585B000208DF8DD
:1028600008008DF8090008208DF80A00800100900A
:1028700000208DF80B0000218DF80C101948C0893C
:10288000010A8DF80D101748817B8DF80E1016483F
:10289000C089010A8DF80F101348817B8DF8101044
:1028A000C08C010A8DF811100F4890F826108DF891
:1028B000121000200D4908700D480068002803DD43
:1028C00069460C4800F018FB04E00948006800283D
:1028D00000DC03E0054800780028F6D000BF05B012
:1028E00000BD0000740300208C0300205100002074
:1028F0004400002000680040B1F5007F3AD00FDCB2
:10290000202928D006DC01291CD004291DD0082943
:1029100040D11DE0402921D0B1F5807F3AD126E099
:10292000B1F5004F31D006DCB1F5806F25D0B1F59F
:10293000006F2FD124E0B1F5803F12D0B1F5003FF8
:1029400028D111E0154A826025E00822C26022E009
:102950001022C2601FE0082202611CE01022026106
:1029600019E00822426016E01022426013E00422BF
:10297000426010E0042242600DE0042242600AE05E
:10298000002282610422426005E00022826104226A
:10299000426000E000BF00BF70470000010101007D
:1029A0000A7BCB7A42EA032212B282818B7B4A7B7A
:1029B00043EA022212B202800B7CCA7B43EA022263
:1029C00012B282804A7CC280028972B1B0F90C20B6
:1029D000B0F908309A4205DA828902F5005212B243
:1029E000428004E08289428001E08289428070470F
:1029F00010B504460B48844209D10121480604F071
:102A000017FA00214FF0007004F012FA08E00121DB
:102A1000880604F00DFA00214FF0806004F008FAF7
:102A200010BD00000064004010B50021837A01222F
:102A300002FA03F13D4A126842F001023B4B1A6070
:102A40003A4A1C3212688A43384B1C331A60027BA4
:102A5000CAB9364A0C3212688A43344B0C331A60B6
:102A60004288C38842EA0343304A4032847A42F8BB
:102A700034300288838842EA03432C4A4032847A05
:102A800002EBC4025360027B012A19D1274A0C329F
:102A900012680A43254B0C331A604288038842EAC5
:102AA0000343224A4032847A42F83430C288838811
:102AB00042EA03431D4A4032847A02EBC402536067
:102AC000C27A3AB9194A121D12688A43174B1B1D64
:102AD0001A6006E0154A121D12680A43134B1B1DAB
:102AE0001A60028932B9114A143212688A430F4BB4
:102AF00014331A600289012A06D10C4A1432126872
:102B00000A430A4B14331A60427B012A06D1074A52
:102B10001C3212680A43054B1C331A60034A1268C0
:102B200022F00102014B1A6010BD00000066004057
:102B300070B504460D46002660692840002871D013
:102B4000B5F5807F5CD010DC082D35D006DC012D7A
:102B500020D0022D24D0042D72D127E0102D31D0A9
:102B6000202D35D0402D6BD138E0B5F5004F60D029
:102B700009DCB5F5007F49D0B5F5806F4CD0B5F5CF
:102B8000006F5DD14FE0B5F5803F2DD0B5F5003F2A
:102B900056D12FE0A0682D4901F0A0FA064651E079
:102BA000E068032101F09AFA06464BE0E06808214C
:102BB00001F094FA064645E0E068102101F08EFA33
:102BC00006463FE02069032101F088FA064639E015
:102BD0002069082101F082FA064633E020691021BD
:102BE00001F07CFA06462DE06068082101F076FAD3
:102BF000064627E06068102101F070FA064621E0E1
:102C0000A069012101F06AFA06461BE0A0690221D1
:102C100001F064FA064615E0A069042101F05EFAAD
:102C200006460FE00FE0A069702101F057FA064652
:102C300008E06068042101F051FA064602E0FFE76F
:102C4000002600BF00E00026304670BD01010100F3
:102C50001AB143690B43436102E043698B4343610B
:102C6000704730B5024600200023146824F00204A7
:102C70001460146844F00104146000E05B1C5468A4
:102C800004F001041CB94FF6FF74A342F6D1546856
:102C900004F001040CB900206CE08C79012C04D103
:102CA000146844F08004146003E0146824F0800485
:102CB0001460CC79012C04D1146844F040041460F1
:102CC00003E0146824F0400414600C7A012C04D151
:102CD000146844F02004146003E0146824F0200415
:102CE00014604C7A012C04D1146844F01004146070
:102CF00003E0146824F0100414608C7A012C04D1D1
:102D0000146844F00804146003E0146824F0080414
:102D10001460CC7A012C04D1146844F004041460CB
:102D200003E0146824F0040414608C78A407CD78C0
:102D300044EA05640D7944EA05444D7944EA0554B2
:102D40000D886D1E2C43D461146824F001041460B6
:102D5000002300E05B1C546804F001041CB14FF632
:102D6000FF74A342F6D1546804F001040CB10020B2
:102D700000E0012030BD10B500F5D87303EB01135E
:102D80001B6803F004031372137A53B900F5D87368
:102D900003EB01131B6840F2FF7404EA5353136002
:102DA00009E000F5D87303EB01131B686FF0604472
:102DB00004EAD303536000F5D87303EB01131B68D7
:102DC00003F00203537200F5D87303EB01135B6841
:102DD00003F00F03937200F5D87303EB01135B68E4
:102DE0001B0AD37400F5D87303EB01139B68D372ED
:102DF00000F5D87303EB01139B681C0A147300F5EC
:102E0000D87303EB01139B681C0C547300F5D87343
:102E100003EB01139B681B0E937300F5D87303EB50
:102E20000113DB68D37300F5D87303EB0113DB6880
:102E30001C0A147400F5D87303EB0113DB681C0C37
:102E4000547400F5D87303EB0113DB681B0E937405
:102E500021B9C36843F02003C36003E0036943F072
:102E60002003036110BD00218171C17101724172A3
:102E70008172C1728170C17003210171022141719F
:102E800001210180704700001849096831B9B0F983
:102E90000210174A11600121144A1160B0F90210A2
:102EA000B0F91220891AB1F5805F05DB1149096874
:102EB000491E104A11600CE0B0F90210B0F912205E
:102EC000891A11F5805F04DC0A490968491C094A1E
:102ED0001160B0F902200749096802EB4131044A48
:102EE0001268891A41614188418270475C00002064
:102EF000640000206000002010B5024600209368A6
:102F000003F08063B3F1806F00D110E0936803F0A9
:102F10000063B3F1006F01D1012008E0936803F072
:102F20008053B3F1805F01D1022000E00420042827
:102F300074D002F5C07303EB00131B6803F00104A7
:102F400002F5C07303EB00131C600B7A7BB94B7A5C
:102F50000C8843EA445302F5C07404EB001424685F
:102F6000234302F5C07404EB0014236010E00B7AD5
:102F70004C6843EAC4034C7A234302F5C07404EB63
:102F800000142468234302F5C07404EB001423608A
:102F90008B7A03F00F038B7202F5C07303EB0013FF
:102FA0005B6823F00F0402F5C07303EB00135C6051
:102FB00002F5C07303EB00135B688C7A234302F5C0
:102FC000C07404EB001463608B7B1C064B7B44EAEB
:102FD00003440B7B44EA0323CC7A234302F5C074F9
:102FE00004EB0014A3608B7C1C064B7C44EA034476
:102FF0000B7C44EA0323CC7B234302F5C07404EB2F
:103000000014E36002F5C07303EB00131B6843F088
:10301000010402F5C07303EB00131C6010BD000037
:1030200010B52DED088B00203E4908603E4890ED1C
:10303000000A3E48D0ED000A30EE200A3C4880ED00
:10304000000A394890ED010A3848D0ED010A30EE07
:10305000200A374880ED010A3649B1F90210364A94
:10306000B2F90020881A0AF056FE41EC1B0B9FEDC6
:10307000330B53EC102B0AF08BFC41EC1A0B9FED39
:10308000310B53EC102B0AF0ADFE41EC190B0AF09A
:1030900099FB08EE100ADFED2D0AB0EE480A2C4825
:1030A00003F02EFD224880ED020AD0ED000A2948E7
:1030B00090ED000AB8EEC00A20EE800A1C4880EDB0
:1030C000000AD0ED010A234890ED000AB8EEC00ACC
:1030D00020EE800A164880ED010A90ED020A10EEFB
:1030E000101A08460BF074F941EC190BB0EE490ABE
:1030F000F0EE690A06F0FCFBB0EE408AF0EE608A62
:103100009FED150B53EC102B51EC180B0AF02EFE13
:1031100004D29FED0E0A064880ED020ABDEC088B32
:1031200010BD0000BC010020D8450120E44501206D
:10313000C4450120440300207E0000200000000060
:103140000000C04000000000008076400000000049
:10315000200D0020B80100200000000000006940A0
:1031600010B5002423E004EB8401204A02EB011097
:1031700003F0D6FD04EB84011C4A02EB0110002190
:10318000DFED1B4A9FED1B4AF7EE003A9FED1A3A1E
:10319000DFED182A9FED192ADFED171A9FED141A9B
:1031A000DFED170AB1EE0C0A03F00AFE641C042CD2
:1031B000D9DB144803F0B4FD0221DFED0D4A9FED89
:1031C0000E4AF7EE003A9FED103ADFED0B2A9FED25
:1031D0000F2ADFED091A9FED0E1ADFED050A9FEDAC
:1031E0000C0A084803F0ECFD10BD00002008002088
:1031F0000000000000409C4500007A460000FA43B1
:10320000CDCCCC3D200D002000C0DA450000484266
:103210000000C842DFED240AB0EE600A00201FE083
:10322000224A32F91010002901DB0A4600E04A4226
:1032300000EE902AF8EEE00AF4EEC00AF1EE10FA81
:103240000DDD1A4A32F91010002901DB0A4600E0B0
:103250004A4200EE902AF8EEE00AB0EE600A401C06
:103260000428DDDBDFED120AB4EEE00AF1EE10FA1D
:1032700019DD002015E0DFED0E0A80EE801A0B4903
:1032800031F9101000EE901AF8EEE00A61EE200A13
:10329000FDEEE00A10EE901A0AB2044921F810205F
:1032A000401C0428E7DB704700000000D0450120E7
:1032B00000D00446124800893C281FDA00201BE099
:1032C0000F49098900EE101AB8EE400A9FED0D1A59
:1032D000C0EE010A0C4931F9101000EE101AB8EED8
:1032E000C00A20EE800ABDEEC00A10EE101A0AB223
:1032F000054921F81020401C0428E1DB704700003C
:10330000E317002000007042D045012010B52DEDDC
:103310000C8B41F28830824908608249B1F9021071
:10332000814AB2F90020881A0AF0F5FC41EC190B29
:103330009FED7E0B53EC102B0AF02AFB41EC180B8F
:103340009FED7C0B53EC102B0AF04CFD7B4A03C223
:103350009FED7B0B53EC102B784890ED000B51EC5C
:10336000100B0AF003FD0CD89FED720B53EC102BE1
:10337000724890ED000B51EC100B0AF055FA6F4AB1
:1033800003C29FED710B53EC102B6C4890ED000BBA
:1033900051EC100B0AF026FD41EC1D0BB0EE4D0A6E
:1033A000F0EE6D0A06F040FAB0EE40BAF0EE60BA08
:1033B000674890ED000A6748D0ED000A30EE200A19
:1033C00010EE101A08460BF003F841EC1C0B53ECFE
:1033D0001B2B0AF007FD41EC190B9FED5B0B53EC27
:1033E000102B564890ED000B51EC100B0AF0FAFC34
:1033F00041EC1D0BB0EE4D0AF0EE6D0A06F0B4FD87
:10340000B0EE40BAF0EE60BA514890ED010A514872
:10341000D0ED010A30EE200A10EE101A08460AF02C
:10342000D7FF41EC1C0B53EC1B2B0AF0DBFC41ECEF
:103430001A0B53EC192B0AF0F7F941EC180B0AF0B0
:10344000C1F9454908609FED400B53EC102B3B48F8
:1034500090ED000B51EC100B0AF0C4FC41EC1D0B7D
:10346000B0EE4D0AF0EE6D0A06F07EFDB0EE40BA09
:10347000F0EE60BA364890ED000A3648D0ED000A0A
:1034800030EE200A10EE101A08460AF0A1FF41ECB7
:103490001C0B53EC1B2B0AF0A5FC41EC180B9FED09
:1034A0002A0B53EC102B254890ED000B51EC100B20
:1034B0000AF098FC41EC1D0BB0EE4D0AF0EE6D0ADF
:1034C00006F0B2F9B0EE40BAF0EE60BA204890EDE6
:1034D000010A2048D0ED010A30EE200A10EE101A41
:1034E00008460AF075FF41EC1C0B53EC1B2B0AF04D
:1034F00079FC41EC1A0B53EC182B0AF07FFE41ECDF
:10350000190B0AF05FF914494860054890ED000A6C
:10351000B8EEC00A084680ED020ABDEC0C8B10BD67
:10352000BC010020440300208000002000000000B7
:103530000000C0400000000000807640D001002064
:103540000000000000000000000000A046DF913FE6
:10355000D8450120E4450120C445012070B52DED7A
:103560000C8BF0EE408AB0EE608AB0EE41DAFE4895
:10357000007802282BD1FD49B1F90210FC4AB2F9BA
:103580000020881A0AF0C7FB41EC1C0B9FEDF90BD9
:1035900053EC102B0AF0FCF941EC1B0B9FEDF70BE1
:1035A00053EC102B0AF01EFC41EC1A0B0AF00AF93E
:1035B00009EE100ADFEDF30AB0EE490AF24803F013
:1035C0009FFABDEEC00AF14880ED000A1BE0E64814
:1035D0000078032803D10020EC49086013E0EC4890
:1035E000008B00EE100AB8EE400AEA48D0ED000A5F
:1035F00080EE201A9FEDE80A21EE000ABDEEC00A17
:10360000E24880ED000AF5EEC08AF1EE10FA20D112
:10361000B5EEC08AF1EE10FA05DD9FEDE00AE04854
:1036200080ED000A1EE0B5EEC08AF1EE10FA05D278
:103630009FEDDC0ADA4880ED000A13E0B5EEC08A9F
:10364000F1EE10FA0ED19FEDCF0AD54880ED000AB9
:1036500008E0F0EE680AB0EE480A05F08DFFD048A9
:1036600080ED000AC148B0F90200C149B1F900106B
:10367000081A00EE100AB8EEC00ADFEDCB0A80EEA1
:10368000201A9FEDCA0A21EE000ADFEDC90A20EEDA
:10369000200AC34880ED010A90ED000AD0ED010A2E
:1036A00030EE200A80ED020A68EEA80AB0EE600A49
:1036B00008EE080A1C30B5EEC00AF1EE10FA04DB81
:1036C000F1EEC00AC0ED000A04E0DFEDAE0AC0ED85
:1036D000000A00BFB248D0ED020AB0EE600AFDF762
:1036E00043FCAF4880ED030AD0ED020AB0EE600A59
:1036F000FDF7EEFBAA4880ED040A0024BFE0C4EB0E
:10370000041000EB40002D2101EB400000EE900A78
:10371000F8EEE00A9FEDA61A60EE810AB0EE600AAC
:10372000FDF722FC9E4880ED050AC4EB041000EB77
:1037300040002D2101EB400000EE900AF8EEE00A77
:103740009FED9B1A60EE810AB0EE600AFDF7C0FBA8
:10375000934880ED060A90ED070AD0ED030A20EEAB
:10376000200A90ED051A8948D0ED000AF8EEE00A2B
:1037700000EE810A8A48603000EB840080ED000A88
:10378000874890ED070AD0ED040A20EE200A90ED5C
:10379000061A7E48D0ED000AF8EEE00A00EE810A33
:1037A0007F48703000EB840080ED000A7C48703068
:1037B00000EB840090ED000AB5EEC00AF1EE10FABD
:1037C00015D1C4EB041000EB40002D2101EB4000AB
:1037D00000EE100AB8EEC00ADFED750A20EE200AEE
:1037E0006F48203000EB840080ED000A17E06C4841
:1037F000703000EB840090ED001AF0EE410A68484A
:10380000603000EB840090ED001AB0EE410A05F044
:10381000B3FE6348203000EB840080ED000A60486E
:10382000603000EB8400D0ED000AB0EE600AF0EEEC
:10383000000A06F067F8F0EE409A5948703000EB45
:103840008400D0ED000AB0EE600AF0EE000A06F047
:1038500059F839EE809A5248803000EB8405B5EE75
:10386000C09AF1EE10FA04DBB1EEC90A85ED000A48
:1038700004E09FED440A85ED000A00BF641C042C9F
:10388000FFF63DAF00240DE24548203000EB8400F8
:1038900090ED000A10EE101A08460AF099FD41EC6E
:1038A000190B9FED440B53EC102B0AF099FB1BD224
:1038B0003B48203000EB840090ED000A10EE101A17
:1038C00008460AF085FD41EC1A0B9FED3C0B53ECCA
:1038D000102B0AF093FC41EC190B09F073FF3049EF
:1038E000203141F824002EE02D48203000EB8400E8
:1038F00090ED000A10EE101A08460AF069FD41EC3E
:10390000190B9FED300B53EC102B0AF02FFA1AD243
:103910002348203000EB840090ED000A10EE101ACE
:1039200008460AF055FD41EC1A0B9FED240B53ECB1
:10393000102B09F079FF41EC190B09F043FF1849EE
:10394000203141F8240004EB4400204901EBC00081
:10395000B0F9020004EB44011C4A02EBC101B1F9C9
:103960000A10401A34E00000AC010020440300209B
:103970007E000020000000000000C04000000000A9
:103980000080764000000000200D0020C0010020D3
:10399000C8170020C40100200080BB45DB0FC93FD1
:1039A000F4170020DB0FC9BF000000460000B4433D
:1039B00035FA8E3C00000051FB2109400000005107
:1039C000FB21194000000051FB2109C0BC0300206D
:1039D00000EE100AB8EEC00ADFEDDA0A80EE201A17
:1039E0001FED0E0A21EE000A5FED0F0A20EE200AFD
:1039F000D54800EB840080ED000AD348103800EB76
:103A0000840090ED000AD04800EB8400D0ED000A5D
:103A100030EE600A10EE101A08460AF0D9FC41ECAC
:103A2000190B1FED1C0B53EC102B0AF0D9FA1BD805
:103A3000C548103800EB840090ED000A10EE101A13
:103A400008460AF0C5FC41EC1A0B1FED240B53ECA1
:103A5000102B0AF0D3FB41EC190B09F0B3FEBA4965
:103A6000103141F8240042E0B748103800EB8400E0
:103A700090ED000AB44800EB8400D0ED000A30EE6F
:103A8000600A10EE101A08460AF0A2FC41EC190B6D
:103A90001FED340B53EC102B0AF068F91BD8AA4821
:103AA000103800EB840090ED000A10EE101A084662
:103AB0000AF08EFC41EC1A0B1FED400B53EC102B5F
:103AC00009F0B2FE41EC190B09F07CFE9E49103161
:103AD00041F824000BE09C48103800EB840090ED86
:103AE000000A9948103000EB840080ED000A9648E7
:103AF000103000EB840090ED000A934800EB840046
:103B0000D0ED000A30EE600A10EE101A08460AF0F6
:103B10005FFC41EC190B9FED8D0B53EC102B0AF061
:103B20005FFA21D28848103000EB840090ED000A43
:103B300010EE101A08460AF04BFC41EC1A0B1FED70
:103B4000630B53EC102B0AF059FB41EC190B09F0F5
:103B500039FE7D49103141F824004FF0FF317A4899
:103B6000603040F824104DE07748103000EB8400BE
:103B700090ED000A744800EB8400D0ED000A30EEAE
:103B8000600A10EE101A08460AF022FC41EC190BEC
:103B90009FED700B53EC102B0AF0E8F821D26A4825
:103BA000103000EB840090ED000A10EE101A084669
:103BB0000AF00EFC41EC1A0B1FED820B53EC102B9C
:103BC00009F032FE41EC190B09F0FCFD01465E489C
:103BD000103040F824104FF0FF31503040F82410DE
:103BE00010E05948103000EB840090ED000A564870
:103BF000103000EB840080ED000A01215248603053
:103C000040F824105049103101EB840191ED001A65
:103C1000F0EE410A4C4901EB840191ED001AB0EE3F
:103C2000410A04EB84014D4A02EB011002F068FFE7
:103C300004EB8400494901EB001080ED090A04EB14
:103C40008401464A02EB011191ED091AF0EE410A96
:103C500004EB4401424A32F9311001EE101AB8EE79
:103C6000C11AB0EE410A04EB84013E4A02EB011096
:103C700002F046FFBDEEC00A10EE100A00B204EBDF
:103C80004401374A02EBC101C8812F48103800EBCC
:103C9000840090ED000A2C48203000EB840080ED79
:103CA000000A641C042CFFF6EFAD27483038D0ED35
:103CB000200A90ED240AB8EEC00A20EE800ABDEE7C
:103CC000C00A10EE100A00B2274988811E48303819
:103CD00090ED210AF1EE400A90ED250AB8EEC00AF7
:103CE00020EE800ABDEEC00A10EE100A01B21E4896
:103CF000C1811548303890ED220AF1EE400A90ED6E
:103D0000260AB8EEC00A20EE800ABDEEC00A10EE08
:103D1000100A01B2144801820B483038D0ED230A52
:103D200090ED270AB8EEC00A20EE800ABDEEC00A68
:103D300010EE100A01B20C484182FFF76BFABDEC9D
:103D40000C8B70BD00F8FF452418002000000051C6
:103D5000FB21F93F00000051FB21F9BF6009002061
:103D6000BC030020A00A0020C445012000B5F0EEED
:103D7000401AB0EE602AF0EE412A31EE820A30EEAF
:103D8000220ABDEEC00A10EE100A00B21449888162
:103D9000B1EE610A30EE020A30EE220ABDEEC00A30
:103DA00010EE100A01B20E48C181B1EE610A30EE88
:103DB000420A30EE220ABDEEC00A10EE100A01B22D
:103DC0000748018231EEC20A30EE220ABDEEC00A77
:103DD00010EE100A01B202484182FFF71BFA00BD43
:103DE000C44501200020084908609FED080A0848E2
:103DF00080ED000A9FED050A80ED010A9FED030AA0
:103E000080ED020A70470000BC01002000000000A5
:103E1000C445012010B512480068002810DD114883
:103E2000406940F21121884202D100F077F815E094
:103E30000C484069B0F5407F10D100F017F80DE054
:103E40000948B0F9080010F5167F07DD064890F81C
:103E5000380000F0100008B9FFF72CFA10BD000080
:103E6000480000201C0400203A07002010B52DED6A
:103E7000028B234890ED010A10EE101A08460AF052
:103E8000A7FA41EC180B9FED1F0B53EC102B09F018
:103E90006DFF02D200201D4908601D48B0F90800DE
:103EA00010F5167F10DD1A4890F8380000F0100069
:103EB00050B90120154908600020164908601649CC
:103EC0000860FFF7F7F918E01048006870B1114872
:103ED0000068401C0F49086008460068322801DA73
:103EE000FFF7E8F901200C49086006E000200949C5
:103EF000086009490860FFF7DDF9BDEC028B10BDD1
:103F00001C0400200000000000002E40B001002032
:103F10003A070020B40100205400002010B52DED18
:103F2000088B6148B0F9080010F5167F0CDD5E487B
:103F300090F8380000F0100030B900205B4908709C
:103F400001205B49086009E05948006818B1012068
:103F50005649087002E0002054490870554890ED19
:103F6000040A10EE101A08460AF032FA41EC180B57
:103F70009FED510B53EC102B09F0F8FE04D20020FA
:103F80004B4908604949087048480078002866D1C4
:103F9000484890ED000A10EE101A08460AF018FA88
:103FA00041EC1B0B9FED460B53EC102B0AF026F94E
:103FB00041EC190B3F4890ED040A10EE101A084628
:103FC0000AF006FA41EC1B0B9FED3D0B53EC102B56
:103FD0000AF014F941EC1A0B53EC192B09F0D8FC38
:103FE00041EC180B09F0EEFB374908600846006801
:103FF0000AF0EEF941EC180B9FED340B53EC102B4B
:1040000009F0EEFF05D8B7EE000A2F4880ED000A50
:104010000BE02D4890ED000AB5EEC00AF1EE10FA63
:1040200003D29FED2C0A80ED000A002014E02A49FB
:1040300031F9101000EE101AB8EEC00A2249D1ED85
:10404000000A20EE200ABDEEC00A10EE101A0AB2D5
:10405000214921F81020401C0428E8DB21E0134806
:10406000007801281DD1B7EE000A174880ED000A3C
:10407000002014E0184931F9101000EE101AB8EEC3
:10408000C00A1149D1ED000A20EE200ABDEEC00A97
:1040900010EE101A0AB2104921F81020401C042812
:1040A000E8DBBDEC088B10BD3A070020CC010020F6
:1040B000B00100201C04002000000000000030407F
:1040C0000000000000002440C801002000000000A3
:1040D0000000F03F00000000D04501200246002013
:1040E00002EA01030BB1012000E00020704700004C
:1040F00010B500F007F840F29C400149486310BD3C
:104100000000014000B58BB00121084602F0A0FE7E
:104110000121102002F06CFE01220921224800F04A
:104120007CFE4FF40070099002208DF828000020DA
:104130008DF82A0003208DF8290009A91A4800F0FB
:1041400024FEA720ADF818000020ADF81A0044F6B0
:104150001F6007900020ADF8200006A9134804F066
:104160001FFB4FF4FA6003906020ADF804000120BB
:10417000ADF806000020ADF8100001A90B4804F0CE
:104180006DFA0821094804F0A7FA0121074804F054
:1041900021FA0121054804F038FA0121034804F00E
:1041A00028FA0BB000BD00000010024000000140E2
:1041B00010B50949094800F023F9012807D1002169
:1041C000064800F03FF8C821044800F095F902497C
:1041D000024800F01DF810BD00802020A0640240BD
:1041E00010B50949094800F00BF9012807D1002151
:1041F000064800F027F80A21044800F07DF902493A
:10420000024800F005F810BD00800028B8640240A4
:104210000246094B9A4201D2084801E0064810388C
:1042200001F000531BB1064B0B40C36002E0044B8E
:104230000B40836070470000106402400060024041
:104240007D0F7D0F21B1026842F00102026003E0A0
:10425000026822F00102026070470000016821F04C
:10426000010101600021016041608160C160016164
:10427000212141614A49884204D13D21484A103AEE
:1042800091608CE046491831884205D14FF4746141
:10429000434A103A916082E041493031884205D169
:1042A0004FF474113E4A103A916078E03C4948312D
:1042B000884205D14FF07461394A103A91606EE03E
:1042C00037496031884204D13649354A103AD160C5
:1042D00065E033497831884204D13349304A103A95
:1042E000D1605CE02E499031884204D12F492C4A9C
:1042F000103AD16053E02A49A831884205D14FF0E5
:104300003D51274A103AD16049E02949884204D1F9
:104310003D21274A083A116041E025491831884279
:1043200005D14FF47461224A083A116037E0204900
:104330003031884205D14FF474111D4A083A11609A
:104340002DE01B494831884205D14FF07461184A6D
:10435000083A116023E016496031884204D11149BE
:10436000134A121F11601AE011497831884204D1B2
:104370000D490F4A121F116011E00D49903188421A
:1043800004D10A490A4A121F116008E00849A831FD
:10439000884204D14FF03D51054A121F1160704709
:1043A000106002403D000020400F002000003D2032
:1043B0001064024021B1026842F48022026003E0EE
:1043C000026822F480220260704722B1036843F43D
:1043D0000023036003E0036823F40023036001610A
:1043E00070470146486880B27047014600200A685D
:1043F00002F400220AB1012000E000207047000012
:1044000070B50246002000240025124EB24201D2AF
:10441000114B01E00F4B103B104E0E4036B11E26E3
:1044200006EAD124166806EA040502E0566906F099
:10443000800501F000560EB15C6800E01C68084E73
:10444000344004EA010616B10DB1012000E000205D
:1044500070BD000010640240006002403C0F3C0F41
:104460007D0F7D0F10B501F080034BB122B1436980
:1044700043F08003436103E0436923F08003436119
:1044800080290BD02AB1036801F01E042343036086
:1044900004E0036801F01E04A343036010BD0000A4
:1044A00010B500220268134B1A40CC680B682343F6
:1044B0004C6923438C692343CC6923430C6A23430F
:1044C0004C6A23438C6A23434C6B23438C6B2343FA
:1044D0001A430260426922F00702D1E90B342343F8
:1044E0001A4342610B6943604B6883608B68C36009
:1044F00010BD00003F801CF0416070476421324ACB
:1045000011600178427841EA0221C1F30A01A1F564
:1045100080612E4A11804178C910827841EA4211A7
:10452000C1F30A01A1F58061284A5180817889117F
:10453000C27841EA8201027941EA8221C1F30A018B
:10454000A1F58061214A918001794910427941EABF
:10455000C211C1F30A01A1F580611C4AD180017C1E
:10456000427C41EA0221C1F30A01A1F58061174AA8
:10457000118141790911890891724179C1F30111C1
:10458000D1728179C27941EA022109B20F4A91813F
:10459000017A427A41EA02210AB20C494A83817ABD
:1045A000C27A41EA02210AB208490A85027B81F8EF
:1045B0003620427B81F83720817BC27B41EA022290
:1045C00002490A8770470000780000203A0700205F
:1045D00010B500F04DF800F099F800F001F810BDAA
:1045E00000B58FB00121480502F002FC1D48FFF71D
:1045F00035FE4FF0006000901B4801901B48029070
:104600000020039012200490002005904FF4806059
:1046100006900020079008904FF4807009904FF4A6
:1046200040300A9000200B900C900D900E9069463F
:104630000C48FFF735FF00220C4912310948FFF7FB
:10464000C4FE01210748FFF7B5FE01210548FFF729
:10465000F9FD012240210448001F04F030FA0FB098
:1046600000BD0000286002400448004016070020FA
:1046700000B587B00121042002F0BAFB01218804B3
:1046800002F0C6FB07220B211D4800F0C6FB4FF4C9
:104690000060059002208DF8180003208DF81900A5
:1046A00000208DF81A0001208DF81B0005A9144880
:1046B00000F06BFB134801900020ADF80800ADF846
:1046C0000A004FF48060ADF80C000020ADF8100037
:1046D0000420ADF80E0001A90B4804F055FA102192
:1046E000094804F0D7F9012240F22441064804F0B9
:1046F00026FA0121044804F0D6F907B000BD0000F5
:1047000000080240A08601000048004008B52720AC
:104710008DF8000001208DF8010000208DF80200C6
:1047200001208DF80300684602F0A4F908BD704727
:104730002DE9F04F0C4609AD95E8E010DDE90D8953
:104740004FF4887AA0F800A0DFF8D4A0BAF800A04F
:10475000A0F802A0DFF8CCA0BAF800A0A0F804A04E
:10476000002106E014F801B000F1060A0AF801B0D1
:10477000491C032904DA14F801A0BAF1000FF1D1A1
:1047800090F809A02AF0380A0AF1380A80F809A03E
:1047900090F809A062F3020A80F809A0B0F809A015
:1047A00063F3891A00F1060BA0F809A090F80AA09B
:1047B00065F3850A80F80AA0B0F80DA06CF3090A29
:1047C000A0F80DA0B0F80EA068F38C0AA0F80EA017
:1047D000B0F80FA069F34F1AA0F80FA0B0F80AA024
:1047E00067F38E1AA0F80AA04FF01E0BB0F80BA0CA
:1047F0006BF3CF1A00F1060BA0F80BA04FF0000AE4
:1048000008E096F800E000F1150B0BF80AE0761CC2
:104810000AF1010ABAF11E0FF3DBBDE8F08F0000C8
:104820006C000020700000202DE9F0470C4608AD18
:1048300095E8E010DDF8308040F20119A0F8009012
:10484000DFF8A090B9F80090A0F80290DFF89890F7
:10485000B9F80090A0F80490002106E014F801A037
:1048600000F1060909F801A0491C032904DA14F82B
:104870000190B9F1000FF1D190F8099029F03809B1
:1048800009F1100980F8099090F8099062F3020983
:1048900080F80990B0F8099063F3891900F1060ACD
:1048A000A0F8099090F80A9065F3850980F80A90BD
:1048B000B0F80D9066F30909A0F80D90B0F80E90CD
:1048C00067F38C09A0F80E90B0F80F906CF34F19B5
:1048D000A0F80F90B0F8119068F30909A0F81190B2
:1048E000BDE8F0876C000020700000202DE9F04F3B
:1048F0000C4609AD95E8E010DDE90D8940F2011A9A
:10490000A0F800A0DFF8B4A0BAF800A0A0F802A0B8
:10491000DFF8ACA0BAF800A0A0F804A0002106E0DF
:1049200014F801B000F1060A0AF801B0491C032985
:1049300004DA14F801A0BAF1000FF1D190F809A03F
:104940002AF0380A0AF1280A80F809A090F809A08C
:1049500062F3020A80F809A0B0F809A063F3891A8B
:1049600000F1060BA0F809A090F80AA065F3850AEB
:1049700080F80AA0B0F80DA06CF3090AA0F80DA009
:10498000B0F80EA068F38C0AA0F80EA0B0F80FA043
:1049900069F34F1AA0F80FA0B0F80AA067F38E1AB7
:1049A000A0F80AA0B0F80BA066F3CF1AA0F80BA0ED
:1049B00010EE10AAC0F811A0BDE8F08F6C00002026
:1049C000700000202DE9F04F0C46DDE90DC8DDE94F
:1049D0000A960C9F099D40F2011AA0F800A0DFF88A
:1049E000A8A0BAF800A0A0F802A0DFF8A0A0BAF82A
:1049F00000A0A0F804A0002106E014F801B000F126
:104A0000060A0AF801B0491C032904DA14F801A0C7
:104A1000BAF1000FF1D190F809A02AF0380A0AF192
:104A2000300A80F809A090F809A062F3020A80F821
:104A300009A0B0F809A063F3891A00F1060BA0F8E9
:104A400009A090F80AA065F3850A80F80AA0B0F8DA
:104A50000DA067F3090AA0F80DA0B0F80EA06CF342
:104A60008C0AA0F80EA0B0F80FA068F34F1AA0F8B7
:104A70000FA0B0F80AA066F38E1AA0F80AA0C0F83A
:104A80001190BDE8F08F00006C0000207000002045
:104A90002DE9F04F0C4609AD95E8E010DDE90D89F0
:104AA00040F2011AA0F800A0DFF8A8A0BAF800A010
:104AB000A0F802A0DFF8A0A0BAF800A0A0F804A017
:104AC000002106E014F801B000F1060A0AF801B06E
:104AD000491C032904DA14F801A0BAF1000FF1D13E
:104AE00090F809A02AF0380B80F809B090F809A0D6
:104AF00062F3020A80F809A0B0F809A063F3891AEA
:104B000000F1060BA0F809A090F80AA065F3850A49
:104B100080F80AA0B0F80DA066F3090AA0F80DA06D
:104B2000B0F80EA067F38C0AA0F80EA0B0F80FA0A2
:104B30006CF34F1AA0F80FA0B0F812A068F38C0A1B
:104B4000A0F812A0B0F813A069F34F1AA0F813A0B0
:104B5000BDE8F08F6C0000207000002010B54FF40D
:104B6000807000F00BF84FF4807000F001F810BD79
:104B70000149086070470000143C014001460020D4
:104B8000034A12680A400AB1012000E00020704781
:104B9000143C0140024601F58050B0F5005F02DB95
:104BA000A1F58050704701F58050FBE770B50446D1
:104BB0000D4605F58050B0F5005F04DBA5F580508B
:104BC00000B2208103E005F5805000B22081B4F9E5
:104BD00008102846FCF7E6FD00B2608170BD0000B9
:104BE00030B10749096841F48061054A116005E068
:104BF0000349096821F48061014A1160704700008F
:104C0000003C024070B504460A460026092502B958
:104C100009E0012A01D1160205E0022A01D116029B
:104C200001E04FF4407600F09FF80546092D28D1A9
:104C30001548006820F44070134908600846006871
:104C4000304308600846006820F0F8000860084615
:104C5000006844F0020108430B49086008460068F8
:104C600040F48030086000F07FF805460648006890
:104C700020F00200044908600846006820F0F800AF
:104C80000860284670BD0000103C0240092013490E
:104C9000096801F48031B1F5803F01D101201CE0A9
:104CA0000E49096801F0100109B1062015E00B4911
:104CB000096801F4807109B102200EE00749096812
:104CC00001F0EF0109B1072007E00449096801F08C
:104CD000020109B1082000E0092070470C3C0240A5
:104CE0000348006840F00040014908607047000038
:104CF000103C024030B502460C46092500F034F85D
:104D00000546092D19D10E48006820F440700C4961
:104D100008600846006840F40070086008460068B3
:104D200040F001000860146000F01EF805460448D9
:104D3000006820F0010002490860284630BD0000EC
:104D4000103C02400548006800F0004028B10448CB
:104D500002490C390860034808607047103C024063
:104D600023016745AB89EFCD08B509200090FFF717
:104D70008DFF009002E0FFF789FF00909DF8000092
:104D80000128F8D09DF8000008BDF0B50A460021C2
:104D90000023002400BF3DE0012505FA01F315685A
:104DA00005EA03049C4234D105684F000326BE4047
:104DB000B543056015794E00B5400668354305607A
:104DC0001579012D02D01579022D16D185684F0075
:104DD0000326BE40B543856055794E00B5408668D0
:104DE00035438560456801268E40B543456045687A
:104DF00096798E40B6B235434560C5684F000326AC
:104E0000BE40B543C560D5794E00B540C668354350
:104E1000C560491C1029BFD3F0BDF0B500230024A4
:104E20004D07ED0E02FA05F3CE1000F1200555F8FE
:104E300026504E07F70E0F26BE40B543CF1000F1A7
:104E4000200646F82750CE1000F1200555F82650D0
:104E500045EA0304CE1000F1200545F82640F0BDD8
:104E6000418370470183704742694A4042617047FD
:104E700030B5034613B94FF6FF7030BD09E013F8A3
:104E8000014B82EA0400C0B2054D35F8100080EAFB
:104E90002222081EA1F10101F1D11046EDE7000028
:104EA000CCE5000830B5034605E013F8010B80EAB5
:104EB00002040448025D081EA1F10105A9B2F4D163
:104EC000104630BDCBE4000810B54F4890F83800CC
:104ED00000F00100B0B14D4806F038FF4C48D0ED6D
:104EE000000A9FED4C1A31EE601AD0ED000A41EE37
:104EF000000A4948C0ED000A4FF4FA61474806F03D
:104F000045FF30E0404890F8380000F00200B0B1B2
:104F10003E4806F01BFF3E48D0ED000A9FED401AC8
:104F200031EE601AD0ED000A41EE000A3A48C0EDB9
:104F3000000A4FF4FA61394806F028FF13E03748B9
:104F400006F004FFF7EE000A30EEC00A3048D0ED5C
:104F5000000A20EE200A304880ED000A4FF4FA6182
:104F60002A4806F013FF284890F8380000F00400A3
:104F7000B0B12C4806F0EAFE2B48D0ED000A9FEDB8
:104F8000281A31EE601AD0ED000A41EE000A2248DC
:104F9000C0ED010A4FF4FA61204806F0F7FE26E062
:104FA000194890F8380000F00800B0B11D4806F02C
:104FB000CDFE1D48D0ED000A9FED161A31EE601AA5
:104FC000D0ED000A41EE000A1348C0ED010A4FF48B
:104FD000FA61124806F0DAFE09E09FED140A0E4865
:104FE00080ED010A4FF4FA610E4806F0CFFE0A4840
:104FF00090ED000A064880ED000A074890ED010A8E
:10500000094880ED000A10BD3A070020FC0100208D
:10501000B002002000C0DA45E4450120380200203B
:1050200000C0DAC510020020B40200200000000019
:105030001F48807A022807D11D48C07A022803D170
:1050400000201C49087032E01B480068322806DD49
:1050500001201A4908700020174908600AE0164824
:10506000006810F1320F05DA0220144908700020A0
:10507000114908600E48C07A012803D00F48007813
:10508000022802D102200B4908700948C07A022880
:1050900003D00A480078012802D101200549087090
:1050A0000348C07A032802D10020024908707047E3
:1050B0003A070020AC01002090020020940200205A
:1050C0001B48B0F9020000EE100AB8EEC00ADFED8E
:1050D000190A80EE201A9FED180A21EE000A1748DF
:1050E00080ED000A1248B0F9000000EE100AB8EE98
:1050F000C00ADFED100A80EE201A9FED0F0A21EEA4
:10510000000A0E4880ED010A0948B0F9040000EEDB
:10511000100AF8EEC00A9FED071A80EE810ADFED53
:10512000080A20EE200A054880ED020A70470000B8
:105130003A0700200000254400C0DA45D845012088
:105140000080BB4423480068322807DD40F29C40C1
:105150002149486300201F4908600BE01D48006892
:1051600010F1320F06DA40F634001B494863002084
:10517000184908601948B0F90800B0F5167F02DD3B
:1051800001201749086016480068012821D11348FA
:10519000B0F9080064281CDA1048B0F908000028AB
:1051A00017DD0D48406B40F29C41884204D140F627
:1051B00034000949486309E00748406B40F6340170
:1051C000884203D140F29C400349486300200449CF
:1051D0000860704788020020000001403A07002064
:1051E000980200201248807A022807D11048C07A1D
:1051F000022803D100200F49087018E00C48C07A3B
:10520000012802D102200B4908700948C07A0328FE
:1052100003D0074890F8370018B1032005490870FB
:1052200005E00348C07A022801D10249087070479E
:105230003A070020DC0100203048008F00F4805045
:1052400058B12E4890F8380000F0200028B12C48C2
:105250000068401E2A4908600DE02848008F00F4CD
:10526000805028B126480068401C2549086002E0AB
:105270000020234908602148008F00F4804058B185
:105280001E4890F8380000F0200028B11D48006842
:10529000401E1C49086010E01848008F00F4804050
:1052A00040B100201849087016480068401C154994
:1052B000086002E00020134908601048008F00F4E5
:1052C000005058B10D4890F8380000F0200028B187
:1052D0000E480068401E0D4908600DE00748008F29
:1052E00000F4005028B109480068401C07490860D4
:1052F00002E0002005490860704700003A070020DE
:10530000880200208C0200207400002090020020FF
:105310003448807A022807D13248C07A022803D163
:105320000020314908705BE030480068322806DD13
:1053300001202D49087000202C49086009E02B4805
:10534000006810F1320F04DA00202749087027495D
:10535000086027480068032811D12248807A012874
:105360000DD121480078012803D100201E49087082
:1053700005E01D48007810B901201B490870194844
:10538000807A1B49086018480078012828D1154800
:10539000807A022803D0134890F8360028B11548C7
:1053A0000068401C1349086002E0002011490860B1
:1053B0001048006801280CD10F4908700F48406957
:1053C0000F49096808440F49086001200E49086028
:1053D00006E008480068642802DD022006490870DB
:1053E000704700003A070020BC0200208C02002019
:1053F000A00200209C020020BD02002074030020B7
:10540000AC020020A8020020A402002010B55D48D4
:10541000807A022878D15B48C07A0228FAD15948AC
:10542000B0F9000010F5167F6EDA5648B0F90200A8
:1054300010F5167FF8DA5348B0F90400B0F5167F7E
:1054400062DD5048B0F9060010F5167FECDA6421F1
:105450004FF47A70FCF70CFD4FF4FA7005F0EEFC97
:105460006421C800FCF704FD4FF4FA7005F0E6FC77
:1054700000214FF44870FCF7FBFC64214FF47A7074
:10548000FCF7F6FC4FF4FA7005F0D8FC6421C80074
:10549000FCF7EEFC4FF4FA7005F0D0FC00214FF45D
:1054A0004870FCF7E5FC04E03748B0F90C003749D8
:1054B00008603448807A0328F6D164214FF47A706A
:1054C000FCF7D6FC4FF4FA7005F0B8FC00214FF45D
:1054D0007A70FCF7CDFC04E02B48B0F924002B498E
:1054E00048602848807A0128F6D164214FF47A7008
:1054F000FCF7BEFC4FF4FA7005F0A0FC00214FF45D
:105500007A70FCF7B5FC05E03BE01F48B0F92400D9
:105510001E4988601B48C07A0328F6D164214FF4E5
:105520007A70FCF7A5FC4FF4FA7005F087FC0021B7
:105530004FF47A70FCF79CFC04E01348B0F92400A7
:105540001249C8600F48C07A0128F6D164214FF48F
:105550007A70FCF78DFC4FF4FA7005F06FFC642153
:10556000C800FCF785FC4FF4FA7005F067FC0021D9
:105570004FF44870FCF77CFC10220449044801F009
:1055800049FF10BD3A070020440300208407002093
:1055900000F00F0810B51C480021016041608160D7
:1055A000C16010220146194801F020FF16484068EA
:1055B00048BB1548806830BB1348C06818BB124808
:1055C000006800BB64214FF47A70FCF751FC4FF483
:1055D000FA7005F033FC6421C800FCF749FC4FF475
:1055E000FA7005F02BFC64214FF47A70FCF740FC54
:1055F0004FF4FA7005F022FC00214FF44870FCF7DC
:1056000037FC00BFFEE710BD8407002000F00F0844
:1056100010B56A48B0F9060000EE100AB8EEC00AEC
:105620009FED671AC0EE010A6448B0F91A0000EE57
:10563000100AB8EEC00A9FED631AC0EE011A30EEF0
:10564000E10A6148D0ED000A30EE200A80ED000A40
:105650005E4890ED010AB7EE001AC0EE010A5A4802
:1056600090ED000A30EE800A80ED000A90ED000A0D
:105670005748D0ED000AB4EEE00AF1EE10FA05DD6D
:1056800090ED000A504880ED000A0FE04E4890ED82
:10569000000A5048D0ED000AB4EEE00AF1EE10FA2C
:1056A00004D290ED000A484880ED000A4A48B0F95B
:1056B0001A0000EE900AF8EEE00AB0EE600A4248E6
:1056C000D0ED000A454801F01BFA4448503880EDFF
:1056D0001D0A90ED1D1AF0EE410A4148B0F9100084
:1056E000404201EE100AB8EEC11ADFED3E1A21EE7B
:1056F000211AB0EE410A3C4801F002FABDEEC00AA0
:1057000010EE100A01B23448C184384890ED000A06
:10571000374880ED000A2948B0F9040000EE100A6D
:10572000B8EEC00A9FED331AC0EE010A2348B0F963
:105730000C0000EE100AB8EEC00A9FED221AC0EE6F
:10574000011A30EEA10A2A48D0ED000A30EEC00A54
:1057500080ED000A1D4890ED020A2548D0ED000AB0
:1057600030EE200A80ED000AD0ED000A1F4890EDCF
:10577000000A1A48503801F0C3F91848503880ED33
:10578000090A90ED091AF0EE410A1548B0F9120025
:1057900001EE100AB8EEC11ADFED121A21EE211A3D
:1057A000B0EE410A1048503801F0AAF9BDEEC00A27
:1057B00010EE100A00B20849C88110BD3A07002057
:1057C000000048420000C842E40100201008002008
:1057D000E8010020EC01002044030020300C0020F0
:1057E000A2070020CDCCCC3DD00C0020040100202D
:1057F000E00100200000164410B52DED048B754823
:10580000B0F9060000EE100AB8EEC00A9FED721A59
:10581000C0EE010A6F48B0F91A0000EE100AB8EEA7
:10582000C00AB2EE041AC0EE011A30EEE10A6B486B
:10583000D0ED000A30EE200A80ED000A90ED000A5B
:105840006748D0ED000AB4EEE00AF1EE10FA05DD8B
:1058500090ED000A614880ED000A0FE05F4890ED8E
:10586000000A6048D0ED000AB4EEE00AF1EE10FA4A
:1058700004D290ED000A594880ED000A5A48B0F968
:105880001A0000EE900AF8EEE00AB0EE600A534803
:10589000D0ED000A554801F033F95448503880EDF6
:1058A0001D0A90ED1D1AF0EE410A5148B0F91000A2
:1058B000404201EE100AB8EEC11ADFED4E1A21EE99
:1058C000211AB0EE410A4C4801F01AF9BDEEC00AA7
:1058D00010EE100A01B24448C1843E48B0F90400F9
:1058E00000EE100AB8EEC00A9FED441AC0EE010A9D
:1058F0003848B0F90C0000EE100AB8EEC00A9FED6F
:10590000401AC0EE011A30EEA10A3E48D0ED000A5E
:1059100030EEC00A80ED000A2E4890F8380000F002
:10592000400090B13748006808F052FD41EC190B77
:105930009FED350B53EC102B07F076FF41EC180B65
:1059400007F040FF2F49086017E0224890F8380020
:1059500000F0800088B12B48006808F039FD41EC68
:10596000190B9FED290B53EC102B08F047FC41EC71
:10597000180B07F027FF234908602248D0ED000AE2
:10598000234890ED000A1948503801F0B9F817483B
:10599000503880ED090A90ED091AF0EE410A1448DA
:1059A000B0F9120001EE100AB8EEC11ADFED111ABB
:1059B00021EE211AB0EE410A0F48503801F0A0F84C
:1059C000BDEEC00A10EE100A00B20749C881BDEC56
:1059D000048B10BD3A07002000004842E40100207B
:1059E000E8010020EC01002044030020300C0020DE
:1059F000A2070020CDCCCC3DD00C002000001644E6
:105A00000000C842E0010020333333333333D33F47
:105A10000401002010B5FFF7F9FC734801F080F98C
:105A20007148503001F07CF9704801F079F96F4805
:105A3000503001F075F90221DFED6D4A9FED6D4A9E
:105A4000F7EE003A9FED6C3ADFED6A2A9FED6B2A84
:105A5000DFED691A9FED661ADFED650AB3EE090AFC
:105A6000614801F0ADF90221DFED614A9FED614A25
:105A7000F7EE003A9FED5F3ADFED612A9FED612A74
:105A8000DFED5C1A9FED5A1ADFED590A9FED5E0AB1
:105A9000564801F095F90221DFED554A9FED554A30
:105AA000F7EE003A9FED543ADFED522A9FED502A6F
:105AB000DFED511A9FED4E1ADFED4D0AB0EE000AF0
:105AC0004948503001F07CF90221DFED494A9FED51
:105AD000494AF7EE003A9FED473ADFED462A9FED3F
